{
  "contractName": "Marketplace",
  "abi": [
    {
      "constant": false,
      "inputs": [
        {
          "name": "ID",
          "type": "bytes32"
        },
        {
          "name": "quantity",
          "type": "uint256"
        }
      ],
      "name": "buy",
      "outputs": [],
      "payable": true,
      "stateMutability": "payable",
      "type": "function"
    },
    {
      "constant": true,
      "inputs": [
        {
          "name": "ID",
          "type": "bytes32"
        }
      ],
      "name": "getProduct",
      "outputs": [
        {
          "name": "name",
          "type": "string"
        },
        {
          "name": "price",
          "type": "uint256"
        },
        {
          "name": "quantity",
          "type": "uint256"
        }
      ],
      "payable": false,
      "stateMutability": "view",
      "type": "function"
    },
    {
      "constant": false,
      "inputs": [
        {
          "name": "ID",
          "type": "bytes32"
        },
        {
          "name": "newQuantity",
          "type": "uint256"
        }
      ],
      "name": "update",
      "outputs": [],
      "payable": false,
      "stateMutability": "nonpayable",
      "type": "function"
    },
    {
      "constant": true,
      "inputs": [],
      "name": "getProducts",
      "outputs": [
        {
          "name": "",
          "type": "bytes32[]"
        }
      ],
      "payable": false,
      "stateMutability": "view",
      "type": "function"
    },
    {
      "constant": true,
      "inputs": [
        {
          "name": "ID",
          "type": "bytes32"
        },
        {
          "name": "quantity",
          "type": "uint256"
        }
      ],
      "name": "getPrice",
      "outputs": [
        {
          "name": "",
          "type": "uint256"
        }
      ],
      "payable": false,
      "stateMutability": "view",
      "type": "function"
    },
    {
      "constant": false,
      "inputs": [
        {
          "name": "name",
          "type": "string"
        },
        {
          "name": "price",
          "type": "uint256"
        },
        {
          "name": "quantity",
          "type": "uint256"
        }
      ],
      "name": "newProduct",
      "outputs": [
        {
          "name": "",
          "type": "bytes32"
        }
      ],
      "payable": false,
      "stateMutability": "nonpayable",
      "type": "function"
    },
    {
      "inputs": [],
      "payable": false,
      "stateMutability": "nonpayable",
      "type": "constructor"
    },
    {
      "anonymous": false,
      "inputs": [
        {
          "indexed": true,
          "name": "productId",
          "type": "bytes32"
        },
        {
          "indexed": true,
          "name": "buyer",
          "type": "address"
        },
        {
          "indexed": false,
          "name": "quantity",
          "type": "uint256"
        },
        {
          "indexed": false,
          "name": "price",
          "type": "uint256"
        }
      ],
      "name": "BuyLog",
      "type": "event"
    },
    {
      "anonymous": false,
      "inputs": [
        {
          "indexed": true,
          "name": "productId",
          "type": "bytes32"
        },
        {
          "indexed": false,
          "name": "name",
          "type": "string"
        },
        {
          "indexed": false,
          "name": "quantity",
          "type": "uint256"
        },
        {
          "indexed": false,
          "name": "price",
          "type": "uint256"
        }
      ],
      "name": "ProductAdded",
      "type": "event"
    },
    {
      "anonymous": false,
      "inputs": [
        {
          "indexed": true,
          "name": "productId",
          "type": "bytes32"
        },
        {
          "indexed": false,
          "name": "newQuantity",
          "type": "uint256"
        }
      ],
      "name": "ProductUpdated",
      "type": "event"
    }
  ],
  "bytecode": "0x6060604052341561000f57600080fd5b336000806101000a81548173ffffffffffffffffffffffffffffffffffffffff021916908373ffffffffffffffffffffffffffffffffffffffff160217905550610b008061005e6000396000f300606060405260043610610078576000357c0100000000000000000000000000000000000000000000000000000000900463ffffffff1680630ddeb6321461007d5780633a20e9df146100a2578063a58bb84a14610150578063c29b2f2014610180578063c9280f06146101ea578063e6f264251461022e575b600080fd5b6100a06004808035600019169060200190919080359060200190919050506102b9565b005b34156100ad57600080fd5b6100c7600480803560001916906020019091905050610410565b6040518080602001848152602001838152602001828103825285818151815260200191508051906020019080838360005b838110156101135780820151818401526020810190506100f8565b50505050905090810190601f1680156101405780820380516001836020036101000a031916815260200191505b5094505050505060405180910390f35b341561015b57600080fd5b61017e600480803560001916906020019091908035906020019091905050610553565b005b341561018b57600080fd5b61019361063e565b6040518080602001828103825283818151815260200191508051906020019060200280838360005b838110156101d65780820151818401526020810190506101bb565b505050509050019250505060405180910390f35b34156101f557600080fd5b6102186004808035600019169060200190919080359060200190919050506106a0565b6040518082815260200191505060405180910390f35b341561023957600080fd5b61029b600480803590602001908201803590602001908080601f016020809104026020016040519081016040528093929190818152602001838380828437820191505050505050919080359060200190919080359060200190919050506106fe565b60405180826000191660001916815260200191505060405180910390f35b6000811115156102c857600080fd5b8060016000846000191660001916815260200190815260200160002060020154101515156102f557600080fd5b61033b6001600084600019166000191681526020019081526020016000206002015460016000856000191660001916815260200190815260200160002060010154610926565b341015151561034957600080fd5b6103716001600084600019166000191681526020019081526020016000206002015482610961565b600160008460001916600019168152602001908152602001600020600201819055503373ffffffffffffffffffffffffffffffffffffffff1682600019167f3cbcd157bca58b00879ea7011e06ca2ab44df86af85e8a92b957f8870fd2d9fe8360016000876000191660001916815260200190815260200160002060010154604051808381526020018281526020019250505060405180910390a35050565b61041861097a565b60008060006001600086600019166000191681526020019081526020016000206001015411151561044857600080fd5b6001600085600019166000191681526020019081526020016000206000018054600181600116156101000203166002900480601f0160208091040260200160405190810160405280929190818152602001828054600181600116156101000203166002900480156104fa5780601f106104cf576101008083540402835291602001916104fa565b820191906000526020600020905b8154815290600101906020018083116104dd57829003601f168201915b505050505092508260016000866000191660001916815260200190815260200160002060010154925082600160008760001916600019168152602001908152602001600020600201549250829250925092509193909250565b6000809054906101000a900473ffffffffffffffffffffffffffffffffffffffff1673ffffffffffffffffffffffffffffffffffffffff163373ffffffffffffffffffffffffffffffffffffffff161415156105ae57600080fd5b6000600160008460001916600019168152602001908152602001600020600101541115156105db57600080fd5b806001600084600019166000191681526020019081526020016000206002018190555081600019167f382437c6ae3a07cf804dd649c3360634b23cd8d97f668a5a6ee27a903abea2a1826040518082815260200191505060405180910390a25050565b61064661098e565b600280548060200260200160405190810160405280929190818152602001828054801561069657602002820191906000526020600020905b8154600019168152602001906001019080831161067e575b5050505050905090565b600080600160008560001916600019168152602001908152602001600020600101541115156106ce57600080fd5b6106f66001600085600019166000191681526020019081526020016000206001015483610926565b905092915050565b6000806107096109a2565b60008511151561071857600080fd5b6002866000604051602001526040518082805190602001908083835b6020831015156107595780518252602082019150602081019050602083039250610734565b6001836020036101000a03801982511681845116808217855250505050505090500191505060206040518083038160008661646e5a03f1151561079b57600080fd5b50506040518051905091506000600160008460001916600019168152602001908152602001600020600101541415156107d057fe5b85816000018190525084816020018181525050838160400181815250508060016000846000191660001916815260200190815260200160002060008201518160000190805190602001906108259291906109ca565b506020820151816001015560408201518160020155905050600280548060010182816108519190610a4a565b91600052602060002090016000849091909150906000191690555081600019167f36f6e35400737c4d08ac4465b8ee6f1056cd578a919c1a23f10019584483c4b48786886040518080602001848152602001838152602001828103825285818151815260200191508051906020019080838360005b838110156108e15780820151818401526020810190506108c6565b50505050905090810190601f16801561090e5780820380516001836020036101000a031916815260200191505b5094505050505060405180910390a250509392505050565b600080600084141561093b576000915061095a565b828402905082848281151561094c57fe5b0414151561095657fe5b8091505b5092915050565b600082821115151561096f57fe5b818303905092915050565b602060405190810160405280600081525090565b602060405190810160405280600081525090565b6060604051908101604052806109b6610a76565b815260200160008152602001600081525090565b828054600181600116156101000203166002900490600052602060002090601f016020900481019282601f10610a0b57805160ff1916838001178555610a39565b82800160010185558215610a39579182015b82811115610a38578251825591602001919060010190610a1d565b5b509050610a469190610a8a565b5090565b815481835581811511610a7157818360005260206000209182019101610a709190610aaf565b5b505050565b602060405190810160405280600081525090565b610aac91905b80821115610aa8576000816000905550600101610a90565b5090565b90565b610ad191905b80821115610acd576000816000905550600101610ab5565b5090565b905600a165627a7a72305820373a578a158a1a13c096f52e37951a08563fce05dbaf715b2e1ae0bbf7fcfced0029",
  "source": "pragma solidity 0.4.19;\r\n/**\r\n * @title SafeMath\r\n * @dev Math operations with safety checks that throw on error\r\n */\r\nlibrary SafeMath {\r\n\r\n  /**\r\n  * @dev Multiplies two numbers, throws on overflow.\r\n  */\r\n  function mul(uint256 a, uint256 b) internal pure returns (uint256) {\r\n    if (a == 0) {\r\n      return 0;\r\n    }\r\n    uint256 c = a * b;\r\n    assert(c / a == b);\r\n    return c;\r\n  }\r\n\r\n  /**\r\n  * @dev Integer division of two numbers, truncating the quotient.\r\n  */\r\n  function div(uint256 a, uint256 b) internal pure returns (uint256) {\r\n    // assert(b > 0); // Solidity automatically throws when dividing by 0\r\n    uint256 c = a / b;\r\n    // assert(a == b * c + a % b); // There is no case in which this doesn't hold\r\n    return c;\r\n  }\r\n\r\n  /**\r\n  * @dev Subtracts two numbers, throws on overflow (i.e. if subtrahend is greater than minuend).\r\n  */\r\n  function sub(uint256 a, uint256 b) internal pure returns (uint256) {\r\n    assert(b <= a);\r\n    return a - b;\r\n  }\r\n\r\n  /**\r\n  * @dev Adds two numbers, throws on overflow.\r\n  */\r\n  function add(uint256 a, uint256 b) internal pure returns (uint256) {\r\n    uint256 c = a + b;\r\n    assert(c >= a);\r\n    return c;\r\n  }\r\n}\r\n\r\ncontract Marketplace {\r\n    \r\n    \r\n    struct ProductData{\r\n        string name;\r\n        uint256 price;\r\n        uint256 quantity;\r\n    }\r\n    \r\n    \r\n    address private owner;\r\n    mapping(bytes32 => ProductData) private products ;\r\n    bytes32[] private allProductsIds;\r\n    \r\n    event BuyLog(bytes32 indexed productId,address indexed buyer, uint256 quantity, uint256 price);\r\n    event ProductAdded(bytes32 indexed productId,string name, uint256 quantity, uint256 price);\r\n    event ProductUpdated(bytes32 indexed productId,uint256 newQuantity);\r\n    \r\n    function Marketplace() public{\r\n        owner = msg.sender;\r\n    }\r\n    \r\n    modifier onlyOwner(){\r\n        require(msg.sender == owner);\r\n        _;\r\n    }\r\n\r\n    \r\n    function buy(bytes32 ID, uint quantity) public payable {\r\n        require(quantity > 0);\r\n        require(products[ID].quantity >= quantity);\r\n        require(msg.value >= SafeMath.mul( products[ID].quantity, products[ID].price));\r\n        \r\n        products[ID].quantity = SafeMath.sub(products[ID].quantity ,quantity);\r\n        \r\n        BuyLog(ID, msg.sender, quantity, products[ID].price);\r\n    }\r\n    \r\n    function update(bytes32 ID, uint newQuantity) public onlyOwner {\r\n        //ensure the product exists\r\n        require(products[ID].price > 0);\r\n        \r\n        products[ID].quantity = newQuantity;\r\n        \r\n        ProductUpdated(ID, newQuantity);\r\n    }\r\n    \r\n    //creates a new product and returns its ID\r\n    function newProduct(string name, uint price, uint quantity) public returns(bytes32) {\r\n        require(price > 0);\r\n        bytes32 _id = sha256(name);\r\n        assert(products[_id].price == 0);\r\n        \r\n        ProductData memory data;\r\n        data.name = name;\r\n        data.price = price;\r\n        data.quantity = quantity;\r\n        \r\n        products[_id] = data;\r\n        allProductsIds.push(_id);\r\n        \r\n        ProductAdded(_id, name,quantity, price);\r\n    }\r\n    \r\n    function getProduct(bytes32 ID) public view returns(string name, uint price, uint quantity) {\r\n        require(products[ID].price > 0);\r\n        \r\n        return(name = products[ID].name, price = products[ID].price, quantity = products[ID].quantity);\r\n    }\r\n    \r\n    function getProducts() public view returns(bytes32[]) {\r\n        return allProductsIds;\r\n    }\r\n    \r\n    function getPrice(bytes32 ID, uint quantity) public view returns (uint) {\r\n        require(products[ID].price > 0);\r\n        \r\n        return SafeMath.mul(products[ID].price , quantity);\r\n    }\r\n}",
  "sourcePath": "C:\\Users\\volland\\source\\repos\\EthereumMarketplace\\Contracts\\contracts\\Marketplace.sol",
  "compiler": {
    "name": "solc",
    "version": "0.4.19+commit.c4cbbb05.Emscripten.clang"
  },
  "schemaVersion": "2.0.0",
  "updatedAt": "2018-03-24T17:42:01.272Z"
}