{
  "contractName": "Marketplace",
  "abi": [
    {
      "constant": false,
      "inputs": [
        {
          "name": "ID",
          "type": "bytes32"
        },
        {
          "name": "quantity",
          "type": "uint256"
        }
      ],
      "name": "buy",
      "outputs": [],
      "payable": true,
      "stateMutability": "payable",
      "type": "function"
    },
    {
      "constant": true,
      "inputs": [
        {
          "name": "ID",
          "type": "bytes32"
        }
      ],
      "name": "getProduct",
      "outputs": [
        {
          "name": "name",
          "type": "string"
        },
        {
          "name": "price",
          "type": "uint256"
        },
        {
          "name": "quantity",
          "type": "uint256"
        }
      ],
      "payable": false,
      "stateMutability": "view",
      "type": "function"
    },
    {
      "constant": false,
      "inputs": [
        {
          "name": "ID",
          "type": "bytes32"
        },
        {
          "name": "newQuantity",
          "type": "uint256"
        }
      ],
      "name": "update",
      "outputs": [],
      "payable": false,
      "stateMutability": "nonpayable",
      "type": "function"
    },
    {
      "constant": true,
      "inputs": [],
      "name": "getProducts",
      "outputs": [
        {
          "name": "",
          "type": "bytes32[]"
        }
      ],
      "payable": false,
      "stateMutability": "view",
      "type": "function"
    },
    {
      "constant": true,
      "inputs": [
        {
          "name": "ID",
          "type": "bytes32"
        },
        {
          "name": "quantity",
          "type": "uint256"
        }
      ],
      "name": "getPrice",
      "outputs": [
        {
          "name": "",
          "type": "uint256"
        }
      ],
      "payable": false,
      "stateMutability": "view",
      "type": "function"
    },
    {
      "constant": true,
      "inputs": [
        {
          "name": "name",
          "type": "string"
        }
      ],
      "name": "getProductID",
      "outputs": [
        {
          "name": "",
          "type": "bytes32"
        }
      ],
      "payable": false,
      "stateMutability": "pure",
      "type": "function"
    },
    {
      "constant": false,
      "inputs": [
        {
          "name": "name",
          "type": "string"
        },
        {
          "name": "price",
          "type": "uint256"
        },
        {
          "name": "quantity",
          "type": "uint256"
        }
      ],
      "name": "newProduct",
      "outputs": [
        {
          "name": "",
          "type": "bytes32"
        }
      ],
      "payable": false,
      "stateMutability": "nonpayable",
      "type": "function"
    },
    {
      "inputs": [],
      "payable": false,
      "stateMutability": "nonpayable",
      "type": "constructor"
    },
    {
      "anonymous": false,
      "inputs": [
        {
          "indexed": true,
          "name": "productId",
          "type": "bytes32"
        },
        {
          "indexed": true,
          "name": "buyer",
          "type": "address"
        },
        {
          "indexed": false,
          "name": "quantity",
          "type": "uint256"
        },
        {
          "indexed": false,
          "name": "price",
          "type": "uint256"
        }
      ],
      "name": "BuyLog",
      "type": "event"
    },
    {
      "anonymous": false,
      "inputs": [
        {
          "indexed": false,
          "name": "productId",
          "type": "bytes32"
        },
        {
          "indexed": false,
          "name": "name",
          "type": "string"
        },
        {
          "indexed": false,
          "name": "quantity",
          "type": "uint256"
        },
        {
          "indexed": false,
          "name": "price",
          "type": "uint256"
        }
      ],
      "name": "ProductAdded",
      "type": "event"
    },
    {
      "anonymous": false,
      "inputs": [
        {
          "indexed": true,
          "name": "productId",
          "type": "bytes32"
        },
        {
          "indexed": false,
          "name": "newQuantity",
          "type": "uint256"
        }
      ],
      "name": "ProductUpdated",
      "type": "event"
    }
  ],
  "bytecode": "0x6060604052341561000f57600080fd5b336000806101000a81548173ffffffffffffffffffffffffffffffffffffffff021916908373ffffffffffffffffffffffffffffffffffffffff160217905550610c618061005e6000396000f300606060405260043610610083576000357c0100000000000000000000000000000000000000000000000000000000900463ffffffff1680630ddeb632146100885780633a20e9df146100ad578063a58bb84a1461015b578063c29b2f201461018b578063c9280f06146101f5578063e5245b6614610239578063e6f26425146102b2575b600080fd5b6100ab60048080356000191690602001909190803590602001909190505061033d565b005b34156100b857600080fd5b6100d2600480803560001916906020019091905050610476565b6040518080602001848152602001838152602001828103825285818151815260200191508051906020019080838360005b8381101561011e578082015181840152602081019050610103565b50505050905090810190601f16801561014b5780820380516001836020036101000a031916815260200191505b5094505050505060405180910390f35b341561016657600080fd5b6101896004808035600019169060200190919080359060200190919050506105b9565b005b341561019657600080fd5b61019e6106a4565b6040518080602001828103825283818151815260200191508051906020019060200280838360005b838110156101e15780820151818401526020810190506101c6565b505050509050019250505060405180910390f35b341561020057600080fd5b610223600480803560001916906020019091908035906020019091905050610706565b6040518082815260200191505060405180910390f35b341561024457600080fd5b610294600480803590602001908201803590602001908080601f01602080910402602001604051908101604052809392919081815260200183838082843782019150505050505091905050610764565b60405180826000191660001916815260200191505060405180910390f35b34156102bd57600080fd5b61031f600480803590602001908201803590602001908080601f016020809104026020016040519081016040528093929190818152602001838380828437820191505050505050919080359060200190919080359060200190919050506107f9565b60405180826000191660001916815260200191505060405180910390f35b60008111151561034c57600080fd5b80600160008460001916600019168152602001908152602001600020600201541015151561037957600080fd5b6103a18160016000856000191660001916815260200190815260200160002060010154610a87565b34101515156103af57600080fd5b6103d76001600084600019166000191681526020019081526020016000206002015482610ac2565b600160008460001916600019168152602001908152602001600020600201819055503373ffffffffffffffffffffffffffffffffffffffff1682600019167f3cbcd157bca58b00879ea7011e06ca2ab44df86af85e8a92b957f8870fd2d9fe8360016000876000191660001916815260200190815260200160002060010154604051808381526020018281526020019250505060405180910390a35050565b61047e610adb565b6000806000600160008660001916600019168152602001908152602001600020600101541115156104ae57600080fd5b6001600085600019166000191681526020019081526020016000206000018054600181600116156101000203166002900480601f0160208091040260200160405190810160405280929190818152602001828054600181600116156101000203166002900480156105605780601f1061053557610100808354040283529160200191610560565b820191906000526020600020905b81548152906001019060200180831161054357829003601f168201915b505050505092508260016000866000191660001916815260200190815260200160002060010154925082600160008760001916600019168152602001908152602001600020600201549250829250925092509193909250565b6000809054906101000a900473ffffffffffffffffffffffffffffffffffffffff1673ffffffffffffffffffffffffffffffffffffffff163373ffffffffffffffffffffffffffffffffffffffff1614151561061457600080fd5b60006001600084600019166000191681526020019081526020016000206001015411151561064157600080fd5b806001600084600019166000191681526020019081526020016000206002018190555081600019167f382437c6ae3a07cf804dd649c3360634b23cd8d97f668a5a6ee27a903abea2a1826040518082815260200191505060405180910390a25050565b6106ac610aef565b60028054806020026020016040519081016040528092919081815260200182805480156106fc57602002820191906000526020600020905b815460001916815260200190600101908083116106e4575b5050505050905090565b6000806001600085600019166000191681526020019081526020016000206001015411151561073457600080fd5b61075c6001600085600019166000191681526020019081526020016000206001015483610a87565b905092915050565b60006002826000604051602001526040518082805190602001908083835b6020831015156107a75780518252602082019150602081019050602083039250610782565b6001836020036101000a03801982511681845116808217855250505050505090500191505060206040518083038160008661646e5a03f115156107e957600080fd5b5050604051805190509050919050565b600080610804610b03565b6000809054906101000a900473ffffffffffffffffffffffffffffffffffffffff1673ffffffffffffffffffffffffffffffffffffffff163373ffffffffffffffffffffffffffffffffffffffff1614151561085f57600080fd5b60008511151561086e57600080fd5b6002866000604051602001526040518082805190602001908083835b6020831015156108af578051825260208201915060208101905060208303925061088a565b6001836020036101000a03801982511681845116808217855250505050505090500191505060206040518083038160008661646e5a03f115156108f157600080fd5b505060405180519050915060006001600084600019166000191681526020019081526020016000206001015414151561092657fe5b858160000181905250848160200181815250508381604001818152505080600160008460001916600019168152602001908152602001600020600082015181600001908051906020019061097b929190610b2b565b506020820151816001015560408201518160020155905050600280548060010182816109a79190610bab565b9160005260206000209001600084909190915090600019169055507f36f6e35400737c4d08ac4465b8ee6f1056cd578a919c1a23f10019584483c4b48287868860405180856000191660001916815260200180602001848152602001838152602001828103825285818151815260200191508051906020019080838360005b83811015610a41578082015181840152602081019050610a26565b50505050905090810190601f168015610a6e5780820380516001836020036101000a031916815260200191505b509550505050505060405180910390a150509392505050565b6000806000841415610a9c5760009150610abb565b8284029050828482811515610aad57fe5b04141515610ab757fe5b8091505b5092915050565b6000828211151515610ad057fe5b818303905092915050565b602060405190810160405280600081525090565b602060405190810160405280600081525090565b606060405190810160405280610b17610bd7565b815260200160008152602001600081525090565b828054600181600116156101000203166002900490600052602060002090601f016020900481019282601f10610b6c57805160ff1916838001178555610b9a565b82800160010185558215610b9a579182015b82811115610b99578251825591602001919060010190610b7e565b5b509050610ba79190610beb565b5090565b815481835581811511610bd257818360005260206000209182019101610bd19190610c10565b5b505050565b602060405190810160405280600081525090565b610c0d91905b80821115610c09576000816000905550600101610bf1565b5090565b90565b610c3291905b80821115610c2e576000816000905550600101610c16565b5090565b905600a165627a7a72305820ea5debeaf63b42ee73e9d53b3229e5f38fc291fb1992332d1a2fc4cad631207e0029",
  "source": "pragma solidity 0.4.19;\r\n/**\r\n * @title SafeMath\r\n * @dev Math operations with safety checks that throw on error\r\n */\r\nlibrary SafeMath {\r\n\r\n  /**\r\n  * @dev Multiplies two numbers, throws on overflow.\r\n  */\r\n  function mul(uint256 a, uint256 b) internal pure returns (uint256) {\r\n    if (a == 0) {\r\n      return 0;\r\n    }\r\n    uint256 c = a * b;\r\n    assert(c / a == b);\r\n    return c;\r\n  }\r\n\r\n  /**\r\n  * @dev Integer division of two numbers, truncating the quotient.\r\n  */\r\n  function div(uint256 a, uint256 b) internal pure returns (uint256) {\r\n    // assert(b > 0); // Solidity automatically throws when dividing by 0\r\n    uint256 c = a / b;\r\n    // assert(a == b * c + a % b); // There is no case in which this doesn't hold\r\n    return c;\r\n  }\r\n\r\n  /**\r\n  * @dev Subtracts two numbers, throws on overflow (i.e. if subtrahend is greater than minuend).\r\n  */\r\n  function sub(uint256 a, uint256 b) internal pure returns (uint256) {\r\n    assert(b <= a);\r\n    return a - b;\r\n  }\r\n\r\n  /**\r\n  * @dev Adds two numbers, throws on overflow.\r\n  */\r\n  function add(uint256 a, uint256 b) internal pure returns (uint256) {\r\n    uint256 c = a + b;\r\n    assert(c >= a);\r\n    return c;\r\n  }\r\n}\r\n\r\ncontract Marketplace {\r\n  \r\n    struct ProductData{\r\n        string name;\r\n        uint256 price;\r\n        uint256 quantity;\r\n    }\r\n        \r\n    address private owner;\r\n    mapping(bytes32 => ProductData) private products ;\r\n    bytes32[] private allProductsIds;\r\n    \r\n    event BuyLog(bytes32 indexed productId,address indexed buyer, uint256 quantity, uint256 price);\r\n    event ProductAdded(bytes32 productId,string name, uint256 quantity, uint256 price);\r\n    event ProductUpdated(bytes32 indexed productId,uint256 newQuantity);\r\n    \r\n    function Marketplace() public{\r\n        owner = msg.sender;\r\n    }\r\n    \r\n    modifier onlyOwner(){\r\n        require(msg.sender == owner);\r\n        _;\r\n    }\r\n\r\n    \r\n    function buy(bytes32 ID, uint quantity) public payable {\r\n        require(quantity > 0);\r\n        require(products[ID].quantity >= quantity);\r\n        require(msg.value >= SafeMath.mul( quantity, products[ID].price));\r\n        \r\n        products[ID].quantity = SafeMath.sub(products[ID].quantity ,quantity);\r\n        \r\n        BuyLog(ID, msg.sender, quantity, products[ID].price);\r\n    }\r\n    \r\n    function update(bytes32 ID, uint newQuantity) public onlyOwner {\r\n        //ensure the product exists\r\n        require(products[ID].price > 0);\r\n        \r\n        products[ID].quantity = newQuantity;\r\n        \r\n        ProductUpdated(ID, newQuantity);\r\n    }\r\n\t\r\n\tfunction getProductID(string name) pure public returns(bytes32){\r\n\t\treturn sha256(name);\r\n\t}\r\n    \r\n    //creates a new product and returns its ID\r\n    function newProduct(string name, uint price, uint quantity) public onlyOwner returns(bytes32) {\r\n        require(price > 0);\r\n        bytes32 _id = sha256(name);\r\n        assert(products[_id].price == 0);\r\n        \r\n        ProductData memory data;\r\n        data.name = name;\r\n        data.price = price;\r\n        data.quantity = quantity;\r\n        \r\n        products[_id] = data;\r\n        allProductsIds.push(_id);\r\n        \r\n        ProductAdded(_id, name,quantity, price);\r\n    }\r\n    \r\n    function getProduct(bytes32 ID) public view returns(string name, uint price, uint quantity) {\r\n        require(products[ID].price > 0);        \r\n        return(name = products[ID].name, price = products[ID].price, quantity = products[ID].quantity);\r\n    }\r\n    \r\n    function getProducts() public view returns(bytes32[]) {\r\n        return allProductsIds;\r\n    }\r\n    \r\n    function getPrice(bytes32 ID, uint quantity) public view returns (uint) {\r\n        require(products[ID].price > 0);       \r\n        return SafeMath.mul(products[ID].price , quantity);\r\n    }\r\n}",
  "sourcePath": "C:\\Users\\volland\\source\\repos\\EthereumMarketplace\\Contracts\\contracts\\Marketplace.sol",
  "compiler": {
    "name": "solc",
    "version": "0.4.19+commit.c4cbbb05.Emscripten.clang"
  },
  "schemaVersion": "2.0.0",
  "updatedAt": "2018-03-25T16:29:37.209Z"
}